{
  "contractName": "ElecHCare",
  "abi": [
    {
      "inputs": [],
      "payable": false,
      "stateMutability": "nonpayable",
      "type": "constructor"
    },
    {
      "constant": true,
      "inputs": [],
      "name": "imageCounter",
      "outputs": [
        {
          "internalType": "uint256",
          "name": "",
          "type": "uint256"
        }
      ],
      "payable": false,
      "stateMutability": "view",
      "type": "function"
    },
    {
      "constant": true,
      "inputs": [
        {
          "internalType": "uint256",
          "name": "",
          "type": "uint256"
        }
      ],
      "name": "imagings",
      "outputs": [
        {
          "internalType": "string",
          "name": "hashval",
          "type": "string"
        },
        {
          "internalType": "address",
          "name": "patient",
          "type": "address"
        }
      ],
      "payable": false,
      "stateMutability": "view",
      "type": "function"
    },
    {
      "constant": true,
      "inputs": [],
      "name": "labCounter",
      "outputs": [
        {
          "internalType": "uint256",
          "name": "",
          "type": "uint256"
        }
      ],
      "payable": false,
      "stateMutability": "view",
      "type": "function"
    },
    {
      "constant": true,
      "inputs": [
        {
          "internalType": "uint256",
          "name": "",
          "type": "uint256"
        }
      ],
      "name": "labtests",
      "outputs": [
        {
          "internalType": "string",
          "name": "testname",
          "type": "string"
        },
        {
          "internalType": "address",
          "name": "patient",
          "type": "address"
        },
        {
          "internalType": "string",
          "name": "results",
          "type": "string"
        }
      ],
      "payable": false,
      "stateMutability": "view",
      "type": "function"
    },
    {
      "constant": true,
      "inputs": [],
      "name": "preCounter",
      "outputs": [
        {
          "internalType": "uint256",
          "name": "",
          "type": "uint256"
        }
      ],
      "payable": false,
      "stateMutability": "view",
      "type": "function"
    },
    {
      "constant": true,
      "inputs": [
        {
          "internalType": "uint256",
          "name": "",
          "type": "uint256"
        }
      ],
      "name": "prescriptions",
      "outputs": [
        {
          "internalType": "string",
          "name": "drugname",
          "type": "string"
        },
        {
          "internalType": "string",
          "name": "dosage",
          "type": "string"
        },
        {
          "internalType": "address",
          "name": "patient",
          "type": "address"
        }
      ],
      "payable": false,
      "stateMutability": "view",
      "type": "function"
    },
    {
      "constant": true,
      "inputs": [],
      "name": "sympCounter",
      "outputs": [
        {
          "internalType": "uint256",
          "name": "",
          "type": "uint256"
        }
      ],
      "payable": false,
      "stateMutability": "view",
      "type": "function"
    },
    {
      "constant": true,
      "inputs": [
        {
          "internalType": "uint256",
          "name": "",
          "type": "uint256"
        }
      ],
      "name": "symptoms",
      "outputs": [
        {
          "internalType": "string",
          "name": "symp",
          "type": "string"
        },
        {
          "internalType": "address",
          "name": "patient",
          "type": "address"
        },
        {
          "internalType": "string",
          "name": "time",
          "type": "string"
        }
      ],
      "payable": false,
      "stateMutability": "view",
      "type": "function"
    },
    {
      "constant": false,
      "inputs": [
        {
          "internalType": "string",
          "name": "_symp",
          "type": "string"
        },
        {
          "internalType": "address",
          "name": "_patient",
          "type": "address"
        },
        {
          "internalType": "string",
          "name": "_time",
          "type": "string"
        }
      ],
      "name": "newSymptom",
      "outputs": [],
      "payable": false,
      "stateMutability": "nonpayable",
      "type": "function"
    },
    {
      "constant": false,
      "inputs": [
        {
          "internalType": "string",
          "name": "_testname",
          "type": "string"
        },
        {
          "internalType": "address",
          "name": "_patient",
          "type": "address"
        },
        {
          "internalType": "string",
          "name": "_results",
          "type": "string"
        }
      ],
      "name": "newLabtest",
      "outputs": [],
      "payable": false,
      "stateMutability": "nonpayable",
      "type": "function"
    },
    {
      "constant": false,
      "inputs": [
        {
          "internalType": "string",
          "name": "_hashval",
          "type": "string"
        },
        {
          "internalType": "address",
          "name": "_patient",
          "type": "address"
        }
      ],
      "name": "newImaging",
      "outputs": [],
      "payable": false,
      "stateMutability": "nonpayable",
      "type": "function"
    },
    {
      "constant": false,
      "inputs": [
        {
          "internalType": "string",
          "name": "_drug",
          "type": "string"
        },
        {
          "internalType": "string",
          "name": "_dosage",
          "type": "string"
        },
        {
          "internalType": "address",
          "name": "_patient",
          "type": "address"
        }
      ],
      "name": "newprescription",
      "outputs": [],
      "payable": false,
      "stateMutability": "nonpayable",
      "type": "function"
    }
  ],
  "bytecode": "0x608060405234801561001057600080fd5b506114a8806100206000396000f3fe608060405234801561001057600080fd5b50600436106100b45760003560e01c80637963f87e116100715780637963f87e14610665578063842e77531461073f5780638576d79d1461081a578063a17cb9341461098c578063a5841cf6146109aa578063d91f1de814610af0576100b4565b806307de0fa5146100b95780630d5770421461022b57806331dfc91b1461037157806355c72b37146104b7578063756c2f79146104d5578063769f607614610647575b600080fd5b610229600480360360608110156100cf57600080fd5b81019080803590602001906401000000008111156100ec57600080fd5b8201836020820111156100fe57600080fd5b8035906020019184600183028401116401000000008311171561012057600080fd5b91908080601f016020809104026020016040519081016040528093929190818152602001838380828437600081840152601f19601f820116905080830192505050505050509192919290803573ffffffffffffffffffffffffffffffffffffffff169060200190929190803590602001906401000000008111156101a357600080fd5b8201836020820111156101b557600080fd5b803590602001918460018302840111640100000000831117156101d757600080fd5b91908080601f016020809104026020016040519081016040528093929190818152602001838380828437600081840152601f19601f820116905080830192505050505050509192919290505050610b0e565b005b6102576004803603602081101561024157600080fd5b8101908080359060200190929190505050610bed565b60405180806020018473ffffffffffffffffffffffffffffffffffffffff1673ffffffffffffffffffffffffffffffffffffffff16815260200180602001838103835286818151815260200191508051906020019080838360005b838110156102cd5780820151818401526020810190506102b2565b50505050905090810190601f1680156102fa5780820380516001836020036101000a031916815260200191505b50838103825284818151815260200191508051906020019080838360005b83811015610333578082015181840152602081019050610318565b50505050905090810190601f1680156103605780820380516001836020036101000a031916815260200191505b509550505050505060405180910390f35b61039d6004803603602081101561038757600080fd5b8101908080359060200190929190505050610d67565b6040518080602001806020018473ffffffffffffffffffffffffffffffffffffffff1673ffffffffffffffffffffffffffffffffffffffff168152602001838103835286818151815260200191508051906020019080838360005b838110156104135780820151818401526020810190506103f8565b50505050905090810190601f1680156104405780820380516001836020036101000a031916815260200191505b50838103825285818151815260200191508051906020019080838360005b8381101561047957808201518184015260208101905061045e565b50505050905090810190601f1680156104a65780820380516001836020036101000a031916815260200191505b509550505050505060405180910390f35b6104bf610ee1565b6040518082815260200191505060405180910390f35b610645600480360360608110156104eb57600080fd5b810190808035906020019064010000000081111561050857600080fd5b82018360208201111561051a57600080fd5b8035906020019184600183028401116401000000008311171561053c57600080fd5b91908080601f016020809104026020016040519081016040528093929190818152602001838380828437600081840152601f19601f820116905080830192505050505050509192919290803573ffffffffffffffffffffffffffffffffffffffff169060200190929190803590602001906401000000008111156105bf57600080fd5b8201836020820111156105d157600080fd5b803590602001918460018302840111640100000000831117156105f357600080fd5b91908080601f016020809104026020016040519081016040528093929190818152602001838380828437600081840152601f19601f820116905080830192505050505050509192919290505050610ee7565b005b61064f610fc8565b6040518082815260200191505060405180910390f35b6106916004803603602081101561067b57600080fd5b8101908080359060200190929190505050610fce565b60405180806020018373ffffffffffffffffffffffffffffffffffffffff1673ffffffffffffffffffffffffffffffffffffffff168152602001828103825284818151815260200191508051906020019080838360005b838110156107035780820151818401526020810190506106e8565b50505050905090810190601f1680156107305780820380516001836020036101000a031916815260200191505b50935050505060405180910390f35b6108186004803603604081101561075557600080fd5b810190808035906020019064010000000081111561077257600080fd5b82018360208201111561078457600080fd5b803590602001918460018302840111640100000000831117156107a657600080fd5b91908080601f016020809104026020016040519081016040528093929190818152602001838380828437600081840152601f19601f820116905080830192505050505050509192919290803573ffffffffffffffffffffffffffffffffffffffff1690602001909291905050506110aa565b005b61098a6004803603606081101561083057600080fd5b810190808035906020019064010000000081111561084d57600080fd5b82018360208201111561085f57600080fd5b8035906020019184600183028401116401000000008311171561088157600080fd5b91908080601f016020809104026020016040519081016040528093929190818152602001838380828437600081840152601f19601f820116905080830192505050505050509192919290803590602001906401000000008111156108e457600080fd5b8201836020820111156108f657600080fd5b8035906020019184600183028401116401000000008311171561091857600080fd5b91908080601f016020809104026020016040519081016040528093929190818152602001838380828437600081840152601f19601f820116905080830192505050505050509192919290803573ffffffffffffffffffffffffffffffffffffffff169060200190929190505050611167565b005b610994611248565b6040518082815260200191505060405180910390f35b6109d6600480360360208110156109c057600080fd5b810190808035906020019092919050505061124e565b60405180806020018473ffffffffffffffffffffffffffffffffffffffff1673ffffffffffffffffffffffffffffffffffffffff16815260200180602001838103835286818151815260200191508051906020019080838360005b83811015610a4c578082015181840152602081019050610a31565b50505050905090810190601f168015610a795780820380516001836020036101000a031916815260200191505b50838103825284818151815260200191508051906020019080838360005b83811015610ab2578082015181840152602081019050610a97565b50505050905090810190601f168015610adf5780820380516001836020036101000a031916815260200191505b509550505050505060405180910390f35b610af86113c8565b6040518082815260200191505060405180910390f35b600080815480929190600101919050555060405180606001604052808481526020018373ffffffffffffffffffffffffffffffffffffffff1681526020018281525060046000805481526020019081526020016000206000820151816000019080519060200190610b809291906113ce565b5060208201518160010160006101000a81548173ffffffffffffffffffffffffffffffffffffffff021916908373ffffffffffffffffffffffffffffffffffffffff1602179055506040820151816002019080519060200190610be49291906113ce565b50905050505050565b6005602052806000526040600020600091509050806000018054600181600116156101000203166002900480601f016020809104026020016040519081016040528092919081815260200182805460018160011615610100020316600290048015610c995780601f10610c6e57610100808354040283529160200191610c99565b820191906000526020600020905b815481529060010190602001808311610c7c57829003601f168201915b5050505050908060010160009054906101000a900473ffffffffffffffffffffffffffffffffffffffff1690806002018054600181600116156101000203166002900480601f016020809104026020016040519081016040528092919081815260200182805460018160011615610100020316600290048015610d5d5780601f10610d3257610100808354040283529160200191610d5d565b820191906000526020600020905b815481529060010190602001808311610d4057829003601f168201915b5050505050905083565b6007602052806000526040600020600091509050806000018054600181600116156101000203166002900480601f016020809104026020016040519081016040528092919081815260200182805460018160011615610100020316600290048015610e135780601f10610de857610100808354040283529160200191610e13565b820191906000526020600020905b815481529060010190602001808311610df657829003601f168201915b505050505090806001018054600181600116156101000203166002900480601f016020809104026020016040519081016040528092919081815260200182805460018160011615610100020316600290048015610eb15780601f10610e8657610100808354040283529160200191610eb1565b820191906000526020600020905b815481529060010190602001808311610e9457829003601f168201915b5050505050908060020160009054906101000a900473ffffffffffffffffffffffffffffffffffffffff16905083565b60015481565b60016000815480929190600101919050555060405180606001604052808481526020018373ffffffffffffffffffffffffffffffffffffffff168152602001828152506005600060015481526020019081526020016000206000820151816000019080519060200190610f5b9291906113ce565b5060208201518160010160006101000a81548173ffffffffffffffffffffffffffffffffffffffff021916908373ffffffffffffffffffffffffffffffffffffffff1602179055506040820151816002019080519060200190610fbf9291906113ce565b50905050505050565b60005481565b6006602052806000526040600020600091509050806000018054600181600116156101000203166002900480601f01602080910402602001604051908101604052809291908181526020018280546001816001161561010002031660029004801561107a5780601f1061104f5761010080835404028352916020019161107a565b820191906000526020600020905b81548152906001019060200180831161105d57829003601f168201915b5050505050908060010160009054906101000a900473ffffffffffffffffffffffffffffffffffffffff16905082565b60026000815480929190600101919050555060405180604001604052808381526020018273ffffffffffffffffffffffffffffffffffffffff1681525060066000600254815260200190815260200160002060008201518160000190805190602001906111189291906113ce565b5060208201518160010160006101000a81548173ffffffffffffffffffffffffffffffffffffffff021916908373ffffffffffffffffffffffffffffffffffffffff1602179055509050505050565b60036000815480929190600101919050555060405180606001604052808481526020018381526020018273ffffffffffffffffffffffffffffffffffffffff1681525060076000600354815260200190815260200160002060008201518160000190805190602001906111db9291906113ce565b5060208201518160010190805190602001906111f89291906113ce565b5060408201518160020160006101000a81548173ffffffffffffffffffffffffffffffffffffffff021916908373ffffffffffffffffffffffffffffffffffffffff160217905550905050505050565b60035481565b6004602052806000526040600020600091509050806000018054600181600116156101000203166002900480601f0160208091040260200160405190810160405280929190818152602001828054600181600116156101000203166002900480156112fa5780601f106112cf576101008083540402835291602001916112fa565b820191906000526020600020905b8154815290600101906020018083116112dd57829003601f168201915b5050505050908060010160009054906101000a900473ffffffffffffffffffffffffffffffffffffffff1690806002018054600181600116156101000203166002900480601f0160208091040260200160405190810160405280929190818152602001828054600181600116156101000203166002900480156113be5780601f10611393576101008083540402835291602001916113be565b820191906000526020600020905b8154815290600101906020018083116113a157829003601f168201915b5050505050905083565b60025481565b828054600181600116156101000203166002900490600052602060002090601f016020900481019282601f1061140f57805160ff191683800117855561143d565b8280016001018555821561143d579182015b8281111561143c578251825591602001919060010190611421565b5b50905061144a919061144e565b5090565b61147091905b8082111561146c576000816000905550600101611454565b5090565b9056fea265627a7a723158206bb518ee3ec392b2a1934e5def9c8e2cd4d43b356332bf3803d02397268da01064736f6c63430005100032",
  "source": "pragma solidity >=0.4.21 <0.6.0;\r\n\r\ncontract ElecHCare {\r\n    uint256 public sympCounter;\r\n    uint256 public labCounter;\r\n    uint256 public imageCounter;\r\n    uint256 public preCounter;\r\n\r\n    mapping(uint256 => symptom) public symptoms;\r\n    mapping(uint256 => labtest) public labtests;\r\n    mapping(uint256 => imaging) public imagings;\r\n    mapping(uint256 => prescription) public prescriptions;\r\n\r\n    constructor() public {}\r\n\r\n    struct symptom {\r\n        string symp;\r\n        address patient;\r\n        string time;\r\n    }\r\n\r\n    struct labtest {\r\n        string testname;\r\n        address patient;\r\n        string results;\r\n    }\r\n\r\n    struct imaging {\r\n        string hashval;\r\n        address patient;\r\n    }\r\n\r\n    struct prescription {\r\n        string drugname;\r\n        string dosage;\r\n        address patient;\r\n    }\r\n\r\n    function newSymptom(\r\n        string memory _symp,\r\n        address _patient,\r\n        string memory _time\r\n    ) public {\r\n        sympCounter++;\r\n        symptoms[sympCounter] = symptom(_symp, _patient, _time);\r\n    }\r\n\r\n    function newLabtest(\r\n        string memory _testname,\r\n        address _patient,\r\n        string memory _results\r\n    ) public {\r\n        labCounter++;\r\n        labtests[labCounter] = labtest(_testname, _patient, _results);\r\n    }\r\n\r\n    function newImaging(string memory _hashval, address _patient) public {\r\n        imageCounter++;\r\n        imagings[imageCounter] = imaging(_hashval, _patient);\r\n    }\r\n\r\n    function newprescription(\r\n        string memory _drug,\r\n        string memory _dosage,\r\n        address _patient\r\n    ) public {\r\n        preCounter++;\r\n        prescriptions[preCounter] = prescription(_drug, _dosage, _patient);\r\n    }\r\n}\r\n",
  "sourcePath": "D:\\projs\\EHR\\src\\contracts\\ElecHCare.sol",
  "compiler": {
    "name": "solc",
    "version": "0.5.16+commit.9c3226ce.Emscripten.clang"
  },
  "schemaVersion": "3.1.0",
  "updatedAt": "2021-01-05T11:36:31.404Z",
  "networkType": "ethereum",
  "devdoc": {
    "methods": {}
  },
  "userdoc": {
    "methods": {}
  }
}